{
  "contracts/FoodRescuePlatform.sol": {
    "FoodRescuePlatform": {
      "abi": [
        {
          "inputs": [
            {
              "internalType": "contract UnwastedMeals",
              "name": "_token",
              "type": "address"
            }
          ],
          "stateMutability": "nonpayable",
          "type": "constructor"
        },
        {
          "inputs": [],
          "name": "AccessControlBadConfirmation",
          "type": "error"
        },
        {
          "inputs": [
            {
              "internalType": "address",
              "name": "account",
              "type": "address"
            },
            {
              "internalType": "bytes32",
              "name": "neededRole",
              "type": "bytes32"
            }
          ],
          "name": "AccessControlUnauthorizedAccount",
          "type": "error"
        },
        {
          "anonymous": false,
          "inputs": [
            {
              "indexed": true,
              "internalType": "address",
              "name": "donor",
              "type": "address"
            },
            {
              "indexed": false,
              "internalType": "uint256",
              "name": "kilos",
              "type": "uint256"
            },
            {
              "indexed": false,
              "internalType": "uint256",
              "name": "amountMinted",
              "type": "uint256"
            }
          ],
          "name": "DonationRecorded",
          "type": "event"
        },
        {
          "anonymous": false,
          "inputs": [
            {
              "indexed": true,
              "internalType": "bytes32",
              "name": "role",
              "type": "bytes32"
            },
            {
              "indexed": true,
              "internalType": "bytes32",
              "name": "previousAdminRole",
              "type": "bytes32"
            },
            {
              "indexed": true,
              "internalType": "bytes32",
              "name": "newAdminRole",
              "type": "bytes32"
            }
          ],
          "name": "RoleAdminChanged",
          "type": "event"
        },
        {
          "anonymous": false,
          "inputs": [
            {
              "indexed": true,
              "internalType": "bytes32",
              "name": "role",
              "type": "bytes32"
            },
            {
              "indexed": true,
              "internalType": "address",
              "name": "account",
              "type": "address"
            },
            {
              "indexed": true,
              "internalType": "address",
              "name": "sender",
              "type": "address"
            }
          ],
          "name": "RoleGranted",
          "type": "event"
        },
        {
          "anonymous": false,
          "inputs": [
            {
              "indexed": true,
              "internalType": "bytes32",
              "name": "role",
              "type": "bytes32"
            },
            {
              "indexed": true,
              "internalType": "address",
              "name": "account",
              "type": "address"
            },
            {
              "indexed": true,
              "internalType": "address",
              "name": "sender",
              "type": "address"
            }
          ],
          "name": "RoleRevoked",
          "type": "event"
        },
        {
          "inputs": [],
          "name": "DEFAULT_ADMIN_ROLE",
          "outputs": [
            {
              "internalType": "bytes32",
              "name": "",
              "type": "bytes32"
            }
          ],
          "stateMutability": "view",
          "type": "function"
        },
        {
          "inputs": [],
          "name": "DONOR_ROLE",
          "outputs": [
            {
              "internalType": "bytes32",
              "name": "",
              "type": "bytes32"
            }
          ],
          "stateMutability": "view",
          "type": "function"
        },
        {
          "inputs": [
            {
              "internalType": "bytes32",
              "name": "role",
              "type": "bytes32"
            }
          ],
          "name": "getRoleAdmin",
          "outputs": [
            {
              "internalType": "bytes32",
              "name": "",
              "type": "bytes32"
            }
          ],
          "stateMutability": "view",
          "type": "function"
        },
        {
          "inputs": [
            {
              "internalType": "bytes32",
              "name": "role",
              "type": "bytes32"
            },
            {
              "internalType": "address",
              "name": "account",
              "type": "address"
            }
          ],
          "name": "grantRole",
          "outputs": [],
          "stateMutability": "nonpayable",
          "type": "function"
        },
        {
          "inputs": [
            {
              "internalType": "bytes32",
              "name": "role",
              "type": "bytes32"
            },
            {
              "internalType": "address",
              "name": "account",
              "type": "address"
            }
          ],
          "name": "hasRole",
          "outputs": [
            {
              "internalType": "bool",
              "name": "",
              "type": "bool"
            }
          ],
          "stateMutability": "view",
          "type": "function"
        },
        {
          "inputs": [
            {
              "internalType": "uint256",
              "name": "kilos",
              "type": "uint256"
            }
          ],
          "name": "recordDonation",
          "outputs": [],
          "stateMutability": "nonpayable",
          "type": "function"
        },
        {
          "inputs": [
            {
              "internalType": "address",
              "name": "donor",
              "type": "address"
            }
          ],
          "name": "registerDonor",
          "outputs": [],
          "stateMutability": "nonpayable",
          "type": "function"
        },
        {
          "inputs": [
            {
              "internalType": "bytes32",
              "name": "role",
              "type": "bytes32"
            },
            {
              "internalType": "address",
              "name": "callerConfirmation",
              "type": "address"
            }
          ],
          "name": "renounceRole",
          "outputs": [],
          "stateMutability": "nonpayable",
          "type": "function"
        },
        {
          "inputs": [
            {
              "internalType": "bytes32",
              "name": "role",
              "type": "bytes32"
            },
            {
              "internalType": "address",
              "name": "account",
              "type": "address"
            }
          ],
          "name": "revokeRole",
          "outputs": [],
          "stateMutability": "nonpayable",
          "type": "function"
        },
        {
          "inputs": [
            {
              "internalType": "bytes4",
              "name": "interfaceId",
              "type": "bytes4"
            }
          ],
          "name": "supportsInterface",
          "outputs": [
            {
              "internalType": "bool",
              "name": "",
              "type": "bool"
            }
          ],
          "stateMutability": "view",
          "type": "function"
        },
        {
          "inputs": [],
          "name": "token",
          "outputs": [
            {
              "internalType": "contract UnwastedMeals",
              "name": "",
              "type": "address"
            }
          ],
          "stateMutability": "view",
          "type": "function"
        }
      ],
      "devdoc": {
        "errors": {
          "AccessControlBadConfirmation()": [
            {
              "details": "The caller of a function is not the expected one. NOTE: Don't confuse with {AccessControlUnauthorizedAccount}."
            }
          ],
          "AccessControlUnauthorizedAccount(address,bytes32)": [
            {
              "details": "The `account` is missing a role."
            }
          ]
        },
        "events": {
          "RoleAdminChanged(bytes32,bytes32,bytes32)": {
            "details": "Emitted when `newAdminRole` is set as ``role``'s admin role, replacing `previousAdminRole` `DEFAULT_ADMIN_ROLE` is the starting admin for all roles, despite {RoleAdminChanged} not being emitted signaling this."
          },
          "RoleGranted(bytes32,address,address)": {
            "details": "Emitted when `account` is granted `role`. `sender` is the account that originated the contract call, an admin role bearer except when using {AccessControl-_setupRole}."
          },
          "RoleRevoked(bytes32,address,address)": {
            "details": "Emitted when `account` is revoked `role`. `sender` is the account that originated the contract call:   - if using `revokeRole`, it is the admin role bearer   - if using `renounceRole`, it is the role bearer (i.e. `account`)"
          }
        },
        "kind": "dev",
        "methods": {
          "getRoleAdmin(bytes32)": {
            "details": "Returns the admin role that controls `role`. See {grantRole} and {revokeRole}. To change a role's admin, use {_setRoleAdmin}."
          },
          "grantRole(bytes32,address)": {
            "details": "Grants `role` to `account`. If `account` had not been already granted `role`, emits a {RoleGranted} event. Requirements: - the caller must have ``role``'s admin role. May emit a {RoleGranted} event."
          },
          "hasRole(bytes32,address)": {
            "details": "Returns `true` if `account` has been granted `role`."
          },
          "recordDonation(uint256)": {
            "params": {
              "kilos": "Peso in kg di cibo salvato"
            }
          },
          "renounceRole(bytes32,address)": {
            "details": "Revokes `role` from the calling account. Roles are often managed via {grantRole} and {revokeRole}: this function's purpose is to provide a mechanism for accounts to lose their privileges if they are compromised (such as when a trusted device is misplaced). If the calling account had been revoked `role`, emits a {RoleRevoked} event. Requirements: - the caller must be `callerConfirmation`. May emit a {RoleRevoked} event."
          },
          "revokeRole(bytes32,address)": {
            "details": "Revokes `role` from `account`. If `account` had been granted `role`, emits a {RoleRevoked} event. Requirements: - the caller must have ``role``'s admin role. May emit a {RoleRevoked} event."
          },
          "supportsInterface(bytes4)": {
            "details": "See {IERC165-supportsInterface}."
          }
        },
        "title": "FoodRescuePlatform",
        "version": 1
      },
      "evm": {
        "bytecode": {
          "linkReferences": {},
          "object": "60a060405234801561001057600080fd5b506040516109cc3803806109cc83398101604081905261002f91610125565b6001600160a01b038116608052610047600033610079565b506100727f7590f0264744cd50915976d360e18170bc29db6f1a196d3b1061f7f19405217033610079565b5050610155565b6000828152602081815260408083206001600160a01b038516845290915281205460ff1661011b576000838152602081815260408083206001600160a01b03861684529091529020805460ff191660011790556100d33390565b6001600160a01b0316826001600160a01b0316847f2f8788117e7eff1d82e926ec794901d17c78024a50270940304540a733656f0d60405160405180910390a450600161011f565b5060005b92915050565b60006020828403121561013757600080fd5b81516001600160a01b038116811461014e57600080fd5b9392505050565b60805161084e61017e600039600081816101af0152818161030601526103ba015261084e6000f3fe608060405234801561001057600080fd5b50600436106100a95760003560e01c806391d148541161007157806391d1485414610142578063a217fddf14610155578063bc9f30a51461015d578063c864be8a14610170578063d547741f14610197578063fc0c546a146101aa57600080fd5b806301ffc9a7146100ae578063248a9ca3146100d65780632f2ff15d1461010757806336568abe1461011c57806351d539c41461012f575b600080fd5b6100c16100bc366004610628565b6101e9565b60405190151581526020015b60405180910390f35b6100f96100e4366004610659565b60009081526020819052604090206001015490565b6040519081526020016100cd565b61011a61011536600461068e565b610220565b005b61011a61012a36600461068e565b61024b565b61011a61013d366004610659565b610283565b6100c161015036600461068e565b61045e565b6100f9600081565b61011a61016b3660046106ba565b610487565b6100f97f7590f0264744cd50915976d360e18170bc29db6f1a196d3b1061f7f19405217081565b61011a6101a536600461068e565b6104bc565b6101d17f000000000000000000000000000000000000000000000000000000000000000081565b6040516001600160a01b0390911681526020016100cd565b60006001600160e01b03198216637965db0b60e01b148061021a57506301ffc9a760e01b6001600160e01b03198316145b92915050565b60008281526020819052604090206001015461023b816104e1565b61024583836104ee565b50505050565b6001600160a01b03811633146102745760405163334bd91960e11b815260040160405180910390fd5b61027e8282610580565b505050565b7f7590f0264744cd50915976d360e18170bc29db6f1a196d3b1061f7f1940521706102ad816104e1565b600082116103025760405162461bcd60e51b815260206004820152601c60248201527f4465766920737065636966696361726520616c6d656e6f2031206b670000000060448201526064015b60405180910390fd5b60007f00000000000000000000000000000000000000000000000000000000000000006001600160a01b031663313ce5676040518163ffffffff1660e01b8152600401602060405180830381865afa158015610362573d6000803e3d6000fd5b505050506040513d601f19601f8201168201806040525081019061038691906106d5565b61039190600a6107f2565b61039b9084610801565b6040516340c10f1960e01b8152336004820152602481018290529091507f00000000000000000000000000000000000000000000000000000000000000006001600160a01b0316906340c10f1990604401600060405180830381600087803b15801561040657600080fd5b505af115801561041a573d6000803e3d6000fd5b505060408051868152602081018590523393507fbbeaef1f9c53a62e5d8f464cd904a0e6d549a6118c0c7159a8efcfa59a6a79fb92500160405180910390a2505050565b6000918252602082815260408084206001600160a01b0393909316845291905290205460ff1690565b6000610492816104e1565b61027e7f7590f0264744cd50915976d360e18170bc29db6f1a196d3b1061f7f194052170836104ee565b6000828152602081905260409020600101546104d7816104e1565b6102458383610580565b6104eb81336105eb565b50565b60006104fa838361045e565b610578576000838152602081815260408083206001600160a01b03861684529091529020805460ff191660011790556105303390565b6001600160a01b0316826001600160a01b0316847f2f8788117e7eff1d82e926ec794901d17c78024a50270940304540a733656f0d60405160405180910390a450600161021a565b50600061021a565b600061058c838361045e565b15610578576000838152602081815260408083206001600160a01b0386168085529252808320805460ff1916905551339286917ff6391f5c32d9c69d2a47ea670b442974b53935d1edc7fd64eb21e047a839171b9190a450600161021a565b6105f5828261045e565b6106245760405163e2517d3f60e01b81526001600160a01b0382166004820152602481018390526044016102f9565b5050565b60006020828403121561063a57600080fd5b81356001600160e01b03198116811461065257600080fd5b9392505050565b60006020828403121561066b57600080fd5b5035919050565b80356001600160a01b038116811461068957600080fd5b919050565b600080604083850312156106a157600080fd5b823591506106b160208401610672565b90509250929050565b6000602082840312156106cc57600080fd5b61065282610672565b6000602082840312156106e757600080fd5b815160ff8116811461065257600080fd5b634e487b7160e01b600052601160045260246000fd5b600181815b8085111561074957816000190482111561072f5761072f6106f8565b8085161561073c57918102915b93841c9390800290610713565b509250929050565b6000826107605750600161021a565b8161076d5750600061021a565b8160018114610783576002811461078d576107a9565b600191505061021a565b60ff84111561079e5761079e6106f8565b50506001821b61021a565b5060208310610133831016604e8410600b84101617156107cc575081810a61021a565b6107d6838361070e565b80600019048211156107ea576107ea6106f8565b029392505050565b600061065260ff841683610751565b808202811582820484141761021a5761021a6106f856fea2646970667358221220615661b44c7b4516de2118d389f8db450773abb4c5d7a5ae5355f5bebd77564964736f6c63430008140033",
          "opcodes": "PUSH1 0xA0 PUSH1 0x40 MSTORE CALLVALUE DUP1 ISZERO PUSH2 0x10 JUMPI PUSH1 0x0 DUP1 REVERT JUMPDEST POP PUSH1 0x40 MLOAD PUSH2 0x9CC CODESIZE SUB DUP1 PUSH2 0x9CC DUP4 CODECOPY DUP2 ADD PUSH1 0x40 DUP2 SWAP1 MSTORE PUSH2 0x2F SWAP2 PUSH2 0x125 JUMP JUMPDEST PUSH1 0x1 PUSH1 0x1 PUSH1 0xA0 SHL SUB DUP2 AND PUSH1 0x80 MSTORE PUSH2 0x47 PUSH1 0x0 CALLER PUSH2 0x79 JUMP JUMPDEST POP PUSH2 0x72 PUSH32 0x7590F0264744CD50915976D360E18170BC29DB6F1A196D3B1061F7F194052170 CALLER PUSH2 0x79 JUMP JUMPDEST POP POP PUSH2 0x155 JUMP JUMPDEST PUSH1 0x0 DUP3 DUP2 MSTORE PUSH1 0x20 DUP2 DUP2 MSTORE PUSH1 0x40 DUP1 DUP4 KECCAK256 PUSH1 0x1 PUSH1 0x1 PUSH1 0xA0 SHL SUB DUP6 AND DUP5 MSTORE SWAP1 SWAP2 MSTORE DUP2 KECCAK256 SLOAD PUSH1 0xFF AND PUSH2 0x11B JUMPI PUSH1 0x0 DUP4 DUP2 MSTORE PUSH1 0x20 DUP2 DUP2 MSTORE PUSH1 0x40 DUP1 DUP4 KECCAK256 PUSH1 0x1 PUSH1 0x1 PUSH1 0xA0 SHL SUB DUP7 AND DUP5 MSTORE SWAP1 SWAP2 MSTORE SWAP1 KECCAK256 DUP1 SLOAD PUSH1 0xFF NOT AND PUSH1 0x1 OR SWAP1 SSTORE PUSH2 0xD3 CALLER SWAP1 JUMP JUMPDEST PUSH1 0x1 PUSH1 0x1 PUSH1 0xA0 SHL SUB AND DUP3 PUSH1 0x1 PUSH1 0x1 PUSH1 0xA0 SHL SUB AND DUP5 PUSH32 0x2F8788117E7EFF1D82E926EC794901D17C78024A50270940304540A733656F0D PUSH1 0x40 MLOAD PUSH1 0x40 MLOAD DUP1 SWAP2 SUB SWAP1 LOG4 POP PUSH1 0x1 PUSH2 0x11F JUMP JUMPDEST POP PUSH1 0x0 JUMPDEST SWAP3 SWAP2 POP POP JUMP JUMPDEST PUSH1 0x0 PUSH1 0x20 DUP3 DUP5 SUB SLT ISZERO PUSH2 0x137 JUMPI PUSH1 0x0 DUP1 REVERT JUMPDEST DUP2 MLOAD PUSH1 0x1 PUSH1 0x1 PUSH1 0xA0 SHL SUB DUP2 AND DUP2 EQ PUSH2 0x14E JUMPI PUSH1 0x0 DUP1 REVERT JUMPDEST SWAP4 SWAP3 POP POP POP JUMP JUMPDEST PUSH1 0x80 MLOAD PUSH2 0x84E PUSH2 0x17E PUSH1 0x0 CODECOPY PUSH1 0x0 DUP2 DUP2 PUSH2 0x1AF ADD MSTORE DUP2 DUP2 PUSH2 0x306 ADD MSTORE PUSH2 0x3BA ADD MSTORE PUSH2 0x84E PUSH1 0x0 RETURN INVALID PUSH1 0x80 PUSH1 0x40 MSTORE CALLVALUE DUP1 ISZERO PUSH2 0x10 JUMPI PUSH1 0x0 DUP1 REVERT JUMPDEST POP PUSH1 0x4 CALLDATASIZE LT PUSH2 0xA9 JUMPI PUSH1 0x0 CALLDATALOAD PUSH1 0xE0 SHR DUP1 PUSH4 0x91D14854 GT PUSH2 0x71 JUMPI DUP1 PUSH4 0x91D14854 EQ PUSH2 0x142 JUMPI DUP1 PUSH4 0xA217FDDF EQ PUSH2 0x155 JUMPI DUP1 PUSH4 0xBC9F30A5 EQ PUSH2 0x15D JUMPI DUP1 PUSH4 0xC864BE8A EQ PUSH2 0x170 JUMPI DUP1 PUSH4 0xD547741F EQ PUSH2 0x197 JUMPI DUP1 PUSH4 0xFC0C546A EQ PUSH2 0x1AA JUMPI PUSH1 0x0 DUP1 REVERT JUMPDEST DUP1 PUSH4 0x1FFC9A7 EQ PUSH2 0xAE JUMPI DUP1 PUSH4 0x248A9CA3 EQ PUSH2 0xD6 JUMPI DUP1 PUSH4 0x2F2FF15D EQ PUSH2 0x107 JUMPI DUP1 PUSH4 0x36568ABE EQ PUSH2 0x11C JUMPI DUP1 PUSH4 0x51D539C4 EQ PUSH2 0x12F JUMPI JUMPDEST PUSH1 0x0 DUP1 REVERT JUMPDEST PUSH2 0xC1 PUSH2 0xBC CALLDATASIZE PUSH1 0x4 PUSH2 0x628 JUMP JUMPDEST PUSH2 0x1E9 JUMP JUMPDEST PUSH1 0x40 MLOAD SWAP1 ISZERO ISZERO DUP2 MSTORE PUSH1 0x20 ADD JUMPDEST PUSH1 0x40 MLOAD DUP1 SWAP2 SUB SWAP1 RETURN JUMPDEST PUSH2 0xF9 PUSH2 0xE4 CALLDATASIZE PUSH1 0x4 PUSH2 0x659 JUMP JUMPDEST PUSH1 0x0 SWAP1 DUP2 MSTORE PUSH1 0x20 DUP2 SWAP1 MSTORE PUSH1 0x40 SWAP1 KECCAK256 PUSH1 0x1 ADD SLOAD SWAP1 JUMP JUMPDEST PUSH1 0x40 MLOAD SWAP1 DUP2 MSTORE PUSH1 0x20 ADD PUSH2 0xCD JUMP JUMPDEST PUSH2 0x11A PUSH2 0x115 CALLDATASIZE PUSH1 0x4 PUSH2 0x68E JUMP JUMPDEST PUSH2 0x220 JUMP JUMPDEST STOP JUMPDEST PUSH2 0x11A PUSH2 0x12A CALLDATASIZE PUSH1 0x4 PUSH2 0x68E JUMP JUMPDEST PUSH2 0x24B JUMP JUMPDEST PUSH2 0x11A PUSH2 0x13D CALLDATASIZE PUSH1 0x4 PUSH2 0x659 JUMP JUMPDEST PUSH2 0x283 JUMP JUMPDEST PUSH2 0xC1 PUSH2 0x150 CALLDATASIZE PUSH1 0x4 PUSH2 0x68E JUMP JUMPDEST PUSH2 0x45E JUMP JUMPDEST PUSH2 0xF9 PUSH1 0x0 DUP2 JUMP JUMPDEST PUSH2 0x11A PUSH2 0x16B CALLDATASIZE PUSH1 0x4 PUSH2 0x6BA JUMP JUMPDEST PUSH2 0x487 JUMP JUMPDEST PUSH2 0xF9 PUSH32 0x7590F0264744CD50915976D360E18170BC29DB6F1A196D3B1061F7F194052170 DUP2 JUMP JUMPDEST PUSH2 0x11A PUSH2 0x1A5 CALLDATASIZE PUSH1 0x4 PUSH2 0x68E JUMP JUMPDEST PUSH2 0x4BC JUMP JUMPDEST PUSH2 0x1D1 PUSH32 0x0 DUP2 JUMP JUMPDEST PUSH1 0x40 MLOAD PUSH1 0x1 PUSH1 0x1 PUSH1 0xA0 SHL SUB SWAP1 SWAP2 AND DUP2 MSTORE PUSH1 0x20 ADD PUSH2 0xCD JUMP JUMPDEST PUSH1 0x0 PUSH1 0x1 PUSH1 0x1 PUSH1 0xE0 SHL SUB NOT DUP3 AND PUSH4 0x7965DB0B PUSH1 0xE0 SHL EQ DUP1 PUSH2 0x21A JUMPI POP PUSH4 0x1FFC9A7 PUSH1 0xE0 SHL PUSH1 0x1 PUSH1 0x1 PUSH1 0xE0 SHL SUB NOT DUP4 AND EQ JUMPDEST SWAP3 SWAP2 POP POP JUMP JUMPDEST PUSH1 0x0 DUP3 DUP2 MSTORE PUSH1 0x20 DUP2 SWAP1 MSTORE PUSH1 0x40 SWAP1 KECCAK256 PUSH1 0x1 ADD SLOAD PUSH2 0x23B DUP2 PUSH2 0x4E1 JUMP JUMPDEST PUSH2 0x245 DUP4 DUP4 PUSH2 0x4EE JUMP JUMPDEST POP POP POP POP JUMP JUMPDEST PUSH1 0x1 PUSH1 0x1 PUSH1 0xA0 SHL SUB DUP2 AND CALLER EQ PUSH2 0x274 JUMPI PUSH1 0x40 MLOAD PUSH4 0x334BD919 PUSH1 0xE1 SHL DUP2 MSTORE PUSH1 0x4 ADD PUSH1 0x40 MLOAD DUP1 SWAP2 SUB SWAP1 REVERT JUMPDEST PUSH2 0x27E DUP3 DUP3 PUSH2 0x580 JUMP JUMPDEST POP POP POP JUMP JUMPDEST PUSH32 0x7590F0264744CD50915976D360E18170BC29DB6F1A196D3B1061F7F194052170 PUSH2 0x2AD DUP2 PUSH2 0x4E1 JUMP JUMPDEST PUSH1 0x0 DUP3 GT PUSH2 0x302 JUMPI PUSH1 0x40 MLOAD PUSH3 0x461BCD PUSH1 0xE5 SHL DUP2 MSTORE PUSH1 0x20 PUSH1 0x4 DUP3 ADD MSTORE PUSH1 0x1C PUSH1 0x24 DUP3 ADD MSTORE PUSH32 0x4465766920737065636966696361726520616C6D656E6F2031206B6700000000 PUSH1 0x44 DUP3 ADD MSTORE PUSH1 0x64 ADD JUMPDEST PUSH1 0x40 MLOAD DUP1 SWAP2 SUB SWAP1 REVERT JUMPDEST PUSH1 0x0 PUSH32 0x0 PUSH1 0x1 PUSH1 0x1 PUSH1 0xA0 SHL SUB AND PUSH4 0x313CE567 PUSH1 0x40 MLOAD DUP2 PUSH4 0xFFFFFFFF AND PUSH1 0xE0 SHL DUP2 MSTORE PUSH1 0x4 ADD PUSH1 0x20 PUSH1 0x40 MLOAD DUP1 DUP4 SUB DUP2 DUP7 GAS STATICCALL ISZERO DUP1 ISZERO PUSH2 0x362 JUMPI RETURNDATASIZE PUSH1 0x0 DUP1 RETURNDATACOPY RETURNDATASIZE PUSH1 0x0 REVERT JUMPDEST POP POP POP POP PUSH1 0x40 MLOAD RETURNDATASIZE PUSH1 0x1F NOT PUSH1 0x1F DUP3 ADD AND DUP3 ADD DUP1 PUSH1 0x40 MSTORE POP DUP2 ADD SWAP1 PUSH2 0x386 SWAP2 SWAP1 PUSH2 0x6D5 JUMP JUMPDEST PUSH2 0x391 SWAP1 PUSH1 0xA PUSH2 0x7F2 JUMP JUMPDEST PUSH2 0x39B SWAP1 DUP5 PUSH2 0x801 JUMP JUMPDEST PUSH1 0x40 MLOAD PUSH4 0x40C10F19 PUSH1 0xE0 SHL DUP2 MSTORE CALLER PUSH1 0x4 DUP3 ADD MSTORE PUSH1 0x24 DUP2 ADD DUP3 SWAP1 MSTORE SWAP1 SWAP2 POP PUSH32 0x0 PUSH1 0x1 PUSH1 0x1 PUSH1 0xA0 SHL SUB AND SWAP1 PUSH4 0x40C10F19 SWAP1 PUSH1 0x44 ADD PUSH1 0x0 PUSH1 0x40 MLOAD DUP1 DUP4 SUB DUP2 PUSH1 0x0 DUP8 DUP1 EXTCODESIZE ISZERO DUP1 ISZERO PUSH2 0x406 JUMPI PUSH1 0x0 DUP1 REVERT JUMPDEST POP GAS CALL ISZERO DUP1 ISZERO PUSH2 0x41A JUMPI RETURNDATASIZE PUSH1 0x0 DUP1 RETURNDATACOPY RETURNDATASIZE PUSH1 0x0 REVERT JUMPDEST POP POP PUSH1 0x40 DUP1 MLOAD DUP7 DUP2 MSTORE PUSH1 0x20 DUP2 ADD DUP6 SWAP1 MSTORE CALLER SWAP4 POP PUSH32 0xBBEAEF1F9C53A62E5D8F464CD904A0E6D549A6118C0C7159A8EFCFA59A6A79FB SWAP3 POP ADD PUSH1 0x40 MLOAD DUP1 SWAP2 SUB SWAP1 LOG2 POP POP POP JUMP JUMPDEST PUSH1 0x0 SWAP2 DUP3 MSTORE PUSH1 0x20 DUP3 DUP2 MSTORE PUSH1 0x40 DUP1 DUP5 KECCAK256 PUSH1 0x1 PUSH1 0x1 PUSH1 0xA0 SHL SUB SWAP4 SWAP1 SWAP4 AND DUP5 MSTORE SWAP2 SWAP1 MSTORE SWAP1 KECCAK256 SLOAD PUSH1 0xFF AND SWAP1 JUMP JUMPDEST PUSH1 0x0 PUSH2 0x492 DUP2 PUSH2 0x4E1 JUMP JUMPDEST PUSH2 0x27E PUSH32 0x7590F0264744CD50915976D360E18170BC29DB6F1A196D3B1061F7F194052170 DUP4 PUSH2 0x4EE JUMP JUMPDEST PUSH1 0x0 DUP3 DUP2 MSTORE PUSH1 0x20 DUP2 SWAP1 MSTORE PUSH1 0x40 SWAP1 KECCAK256 PUSH1 0x1 ADD SLOAD PUSH2 0x4D7 DUP2 PUSH2 0x4E1 JUMP JUMPDEST PUSH2 0x245 DUP4 DUP4 PUSH2 0x580 JUMP JUMPDEST PUSH2 0x4EB DUP2 CALLER PUSH2 0x5EB JUMP JUMPDEST POP JUMP JUMPDEST PUSH1 0x0 PUSH2 0x4FA DUP4 DUP4 PUSH2 0x45E JUMP JUMPDEST PUSH2 0x578 JUMPI PUSH1 0x0 DUP4 DUP2 MSTORE PUSH1 0x20 DUP2 DUP2 MSTORE PUSH1 0x40 DUP1 DUP4 KECCAK256 PUSH1 0x1 PUSH1 0x1 PUSH1 0xA0 SHL SUB DUP7 AND DUP5 MSTORE SWAP1 SWAP2 MSTORE SWAP1 KECCAK256 DUP1 SLOAD PUSH1 0xFF NOT AND PUSH1 0x1 OR SWAP1 SSTORE PUSH2 0x530 CALLER SWAP1 JUMP JUMPDEST PUSH1 0x1 PUSH1 0x1 PUSH1 0xA0 SHL SUB AND DUP3 PUSH1 0x1 PUSH1 0x1 PUSH1 0xA0 SHL SUB AND DUP5 PUSH32 0x2F8788117E7EFF1D82E926EC794901D17C78024A50270940304540A733656F0D PUSH1 0x40 MLOAD PUSH1 0x40 MLOAD DUP1 SWAP2 SUB SWAP1 LOG4 POP PUSH1 0x1 PUSH2 0x21A JUMP JUMPDEST POP PUSH1 0x0 PUSH2 0x21A JUMP JUMPDEST PUSH1 0x0 PUSH2 0x58C DUP4 DUP4 PUSH2 0x45E JUMP JUMPDEST ISZERO PUSH2 0x578 JUMPI PUSH1 0x0 DUP4 DUP2 MSTORE PUSH1 0x20 DUP2 DUP2 MSTORE PUSH1 0x40 DUP1 DUP4 KECCAK256 PUSH1 0x1 PUSH1 0x1 PUSH1 0xA0 SHL SUB DUP7 AND DUP1 DUP6 MSTORE SWAP3 MSTORE DUP1 DUP4 KECCAK256 DUP1 SLOAD PUSH1 0xFF NOT AND SWAP1 SSTORE MLOAD CALLER SWAP3 DUP7 SWAP2 PUSH32 0xF6391F5C32D9C69D2A47EA670B442974B53935D1EDC7FD64EB21E047A839171B SWAP2 SWAP1 LOG4 POP PUSH1 0x1 PUSH2 0x21A JUMP JUMPDEST PUSH2 0x5F5 DUP3 DUP3 PUSH2 0x45E JUMP JUMPDEST PUSH2 0x624 JUMPI PUSH1 0x40 MLOAD PUSH4 0xE2517D3F PUSH1 0xE0 SHL DUP2 MSTORE PUSH1 0x1 PUSH1 0x1 PUSH1 0xA0 SHL SUB DUP3 AND PUSH1 0x4 DUP3 ADD MSTORE PUSH1 0x24 DUP2 ADD DUP4 SWAP1 MSTORE PUSH1 0x44 ADD PUSH2 0x2F9 JUMP JUMPDEST POP POP JUMP JUMPDEST PUSH1 0x0 PUSH1 0x20 DUP3 DUP5 SUB SLT ISZERO PUSH2 0x63A JUMPI PUSH1 0x0 DUP1 REVERT JUMPDEST DUP2 CALLDATALOAD PUSH1 0x1 PUSH1 0x1 PUSH1 0xE0 SHL SUB NOT DUP2 AND DUP2 EQ PUSH2 0x652 JUMPI PUSH1 0x0 DUP1 REVERT JUMPDEST SWAP4 SWAP3 POP POP POP JUMP JUMPDEST PUSH1 0x0 PUSH1 0x20 DUP3 DUP5 SUB SLT ISZERO PUSH2 0x66B JUMPI PUSH1 0x0 DUP1 REVERT JUMPDEST POP CALLDATALOAD SWAP2 SWAP1 POP JUMP JUMPDEST DUP1 CALLDATALOAD PUSH1 0x1 PUSH1 0x1 PUSH1 0xA0 SHL SUB DUP2 AND DUP2 EQ PUSH2 0x689 JUMPI PUSH1 0x0 DUP1 REVERT JUMPDEST SWAP2 SWAP1 POP JUMP JUMPDEST PUSH1 0x0 DUP1 PUSH1 0x40 DUP4 DUP6 SUB SLT ISZERO PUSH2 0x6A1 JUMPI PUSH1 0x0 DUP1 REVERT JUMPDEST DUP3 CALLDATALOAD SWAP2 POP PUSH2 0x6B1 PUSH1 0x20 DUP5 ADD PUSH2 0x672 JUMP JUMPDEST SWAP1 POP SWAP3 POP SWAP3 SWAP1 POP JUMP JUMPDEST PUSH1 0x0 PUSH1 0x20 DUP3 DUP5 SUB SLT ISZERO PUSH2 0x6CC JUMPI PUSH1 0x0 DUP1 REVERT JUMPDEST PUSH2 0x652 DUP3 PUSH2 0x672 JUMP JUMPDEST PUSH1 0x0 PUSH1 0x20 DUP3 DUP5 SUB SLT ISZERO PUSH2 0x6E7 JUMPI PUSH1 0x0 DUP1 REVERT JUMPDEST DUP2 MLOAD PUSH1 0xFF DUP2 AND DUP2 EQ PUSH2 0x652 JUMPI PUSH1 0x0 DUP1 REVERT JUMPDEST PUSH4 0x4E487B71 PUSH1 0xE0 SHL PUSH1 0x0 MSTORE PUSH1 0x11 PUSH1 0x4 MSTORE PUSH1 0x24 PUSH1 0x0 REVERT JUMPDEST PUSH1 0x1 DUP2 DUP2 JUMPDEST DUP1 DUP6 GT ISZERO PUSH2 0x749 JUMPI DUP2 PUSH1 0x0 NOT DIV DUP3 GT ISZERO PUSH2 0x72F JUMPI PUSH2 0x72F PUSH2 0x6F8 JUMP JUMPDEST DUP1 DUP6 AND ISZERO PUSH2 0x73C JUMPI SWAP2 DUP2 MUL SWAP2 JUMPDEST SWAP4 DUP5 SHR SWAP4 SWAP1 DUP1 MUL SWAP1 PUSH2 0x713 JUMP JUMPDEST POP SWAP3 POP SWAP3 SWAP1 POP JUMP JUMPDEST PUSH1 0x0 DUP3 PUSH2 0x760 JUMPI POP PUSH1 0x1 PUSH2 0x21A JUMP JUMPDEST DUP2 PUSH2 0x76D JUMPI POP PUSH1 0x0 PUSH2 0x21A JUMP JUMPDEST DUP2 PUSH1 0x1 DUP2 EQ PUSH2 0x783 JUMPI PUSH1 0x2 DUP2 EQ PUSH2 0x78D JUMPI PUSH2 0x7A9 JUMP JUMPDEST PUSH1 0x1 SWAP2 POP POP PUSH2 0x21A JUMP JUMPDEST PUSH1 0xFF DUP5 GT ISZERO PUSH2 0x79E JUMPI PUSH2 0x79E PUSH2 0x6F8 JUMP JUMPDEST POP POP PUSH1 0x1 DUP3 SHL PUSH2 0x21A JUMP JUMPDEST POP PUSH1 0x20 DUP4 LT PUSH2 0x133 DUP4 LT AND PUSH1 0x4E DUP5 LT PUSH1 0xB DUP5 LT AND OR ISZERO PUSH2 0x7CC JUMPI POP DUP2 DUP2 EXP PUSH2 0x21A JUMP JUMPDEST PUSH2 0x7D6 DUP4 DUP4 PUSH2 0x70E JUMP JUMPDEST DUP1 PUSH1 0x0 NOT DIV DUP3 GT ISZERO PUSH2 0x7EA JUMPI PUSH2 0x7EA PUSH2 0x6F8 JUMP JUMPDEST MUL SWAP4 SWAP3 POP POP POP JUMP JUMPDEST PUSH1 0x0 PUSH2 0x652 PUSH1 0xFF DUP5 AND DUP4 PUSH2 0x751 JUMP JUMPDEST DUP1 DUP3 MUL DUP2 ISZERO DUP3 DUP3 DIV DUP5 EQ OR PUSH2 0x21A JUMPI PUSH2 0x21A PUSH2 0x6F8 JUMP INVALID LOG2 PUSH5 0x6970667358 0x22 SLT KECCAK256 PUSH2 0x5661 0xB4 0x4C PUSH28 0x4516DE2118D389F8DB450773ABB4C5D7A5AE5355F5BEBD7756496473 PUSH16 0x6C634300081400330000000000000000 "
        },
        "gasEstimates": {
          "creation": {
            "codeDepositCost": "425200",
            "executionCost": "infinite",
            "totalCost": "infinite"
          },
          "external": {
            "DEFAULT_ADMIN_ROLE()": "217",
            "DONOR_ROLE()": "261",
            "getRoleAdmin(bytes32)": "2470",
            "grantRole(bytes32,address)": "infinite",
            "hasRole(bytes32,address)": "2651",
            "recordDonation(uint256)": "infinite",
            "registerDonor(address)": "infinite",
            "renounceRole(bytes32,address)": "29090",
            "revokeRole(bytes32,address)": "infinite",
            "supportsInterface(bytes4)": "427",
            "token()": "infinite"
          }
        },
        "methodIdentifiers": {
          "DEFAULT_ADMIN_ROLE()": "a217fddf",
          "DONOR_ROLE()": "c864be8a",
          "getRoleAdmin(bytes32)": "248a9ca3",
          "grantRole(bytes32,address)": "2f2ff15d",
          "hasRole(bytes32,address)": "91d14854",
          "recordDonation(uint256)": "51d539c4",
          "registerDonor(address)": "bc9f30a5",
          "renounceRole(bytes32,address)": "36568abe",
          "revokeRole(bytes32,address)": "d547741f",
          "supportsInterface(bytes4)": "01ffc9a7",
          "token()": "fc0c546a"
        }
      },
      "storageLayout": {
        "storage": [
          {
            "astId": 26,
            "contract": "contracts/FoodRescuePlatform.sol:FoodRescuePlatform",
            "label": "_roles",
            "offset": 0,
            "slot": "0",
            "type": "t_mapping(t_bytes32,t_struct(RoleData)21_storage)"
          }
        ],
        "types": {
          "t_address": {
            "encoding": "inplace",
            "label": "address",
            "numberOfBytes": "20"
          },
          "t_bool": {
            "encoding": "inplace",
            "label": "bool",
            "numberOfBytes": "1"
          },
          "t_bytes32": {
            "encoding": "inplace",
            "label": "bytes32",
            "numberOfBytes": "32"
          },
          "t_mapping(t_address,t_bool)": {
            "encoding": "mapping",
            "key": "t_address",
            "label": "mapping(address => bool)",
            "numberOfBytes": "32",
            "value": "t_bool"
          },
          "t_mapping(t_bytes32,t_struct(RoleData)21_storage)": {
            "encoding": "mapping",
            "key": "t_bytes32",
            "label": "mapping(bytes32 => struct AccessControl.RoleData)",
            "numberOfBytes": "32",
            "value": "t_struct(RoleData)21_storage"
          },
          "t_struct(RoleData)21_storage": {
            "encoding": "inplace",
            "label": "struct AccessControl.RoleData",
            "members": [
              {
                "astId": 18,
                "contract": "contracts/FoodRescuePlatform.sol:FoodRescuePlatform",
                "label": "hasRole",
                "offset": 0,
                "slot": "0",
                "type": "t_mapping(t_address,t_bool)"
              },
              {
                "astId": 20,
                "contract": "contracts/FoodRescuePlatform.sol:FoodRescuePlatform",
                "label": "adminRole",
                "offset": 0,
                "slot": "1",
                "type": "t_bytes32"
              }
            ],
            "numberOfBytes": "64"
          }
        }
      },
      "userdoc": {
        "kind": "user",
        "methods": {
          "recordDonation(uint256)": {
            "notice": "Chiama questo metodo dopo aver verificato off-chain la donazione"
          },
          "registerDonor(address)": {
            "notice": "Registra un nuovo donatore (se usi un ruolo)"
          }
        },
        "notice": "Registra donazioni e minta token UMEALS al donatore",
        "version": 1
      }
    }
  }
}